{
  "contractName": "VoteFactory",
  "abi": [
    {
      "constant": true,
      "inputs": [
        {
          "name": "",
          "type": "uint256"
        }
      ],
      "name": "votes",
      "outputs": [
        {
          "name": "question",
          "type": "string"
        }
      ],
      "payable": false,
      "stateMutability": "view",
      "type": "function"
    },
    {
      "inputs": [],
      "payable": false,
      "stateMutability": "nonpayable",
      "type": "constructor"
    },
    {
      "constant": false,
      "inputs": [
        {
          "name": "_question",
          "type": "string"
        }
      ],
      "name": "createVote",
      "outputs": [],
      "payable": false,
      "stateMutability": "nonpayable",
      "type": "function"
    },
    {
      "constant": false,
      "inputs": [
        {
          "name": "_voteId",
          "type": "uint256"
        },
        {
          "name": "_answer",
          "type": "string"
        }
      ],
      "name": "addAnswer",
      "outputs": [],
      "payable": false,
      "stateMutability": "nonpayable",
      "type": "function"
    },
    {
      "constant": true,
      "inputs": [
        {
          "name": "_voteId",
          "type": "uint256"
        },
        {
          "name": "_answerId",
          "type": "uint256"
        }
      ],
      "name": "voteAnswer",
      "outputs": [
        {
          "name": "",
          "type": "string"
        }
      ],
      "payable": false,
      "stateMutability": "view",
      "type": "function"
    }
  ],
  "bytecode": "0x608060405234801561001057600080fd5b50336000806101000a81548173ffffffffffffffffffffffffffffffffffffffff021916908373ffffffffffffffffffffffffffffffffffffffff16021790555061083a806100606000396000f300608060405260043610610062576000357c0100000000000000000000000000000000000000000000000000000000900463ffffffff16806313292a02146100675780635df81330146100d05780636b7ea125146101765780637491995a14610226575b600080fd5b34801561007357600080fd5b506100ce600480360381019080803590602001908201803590602001908080601f0160208091040260200160405190810160405280939291908181526020018383808284378201915050505050509192919290505050610299565b005b3480156100dc57600080fd5b506100fb600480360381019080803590602001909291905050506103a8565b6040518080602001828103825283818151815260200191508051906020019080838360005b8381101561013b578082015181840152602081019050610120565b50505050905090810190601f1680156101685780820380516001836020036101000a031916815260200191505b509250505060405180910390f35b34801561018257600080fd5b506101ab600480360381019080803590602001909291908035906020019092919050505061046d565b6040518080602001828103825283818151815260200191508051906020019080838360005b838110156101eb5780820151818401526020810190506101d0565b50505050905090810190601f1680156102185780820380516001836020036101000a031916815260200191505b509250505060405180910390f35b34801561023257600080fd5b5061029760048036038101908080359060200190929190803590602001908201803590602001908080601f0160208091040260200160405190810160405280939291908181526020018383808284378201915050505050509192919290505050610547565b005b6000600180604080519081016040528085815260200160006040519080825280602002602001820160405280156102e457816020015b60608152602001906001900390816102cf5790505b5081525090806001815401808255809150509060018203906000526020600020906002020160009091929091909150600082015181600001908051906020019061032f929190610615565b50602082015181600101908051906020019061034c929190610695565b505050039050336002600083815260200190815260200160002060006101000a81548173ffffffffffffffffffffffffffffffffffffffff021916908373ffffffffffffffffffffffffffffffffffffffff1602179055505050565b6001818154811015156103b757fe5b9060005260206000209060020201600091509050806000018054600181600116156101000203166002900480601f0160208091040260200160405190810160405280929190818152602001828054600181600116156101000203166002900480156104635780601f1061043857610100808354040283529160200191610463565b820191906000526020600020905b81548152906001019060200180831161044657829003601f168201915b5050505050905081565b606060018381548110151561047e57fe5b90600052602060002090600202016001018281548110151561049c57fe5b906000526020600020018054600181600116156101000203166002900480601f01602080910402602001604051908101604052809291908181526020018280546001816001161561010002031660029004801561053a5780601f1061050f5761010080835404028352916020019161053a565b820191906000526020600020905b81548152906001019060200180831161051d57829003601f168201915b5050505050905092915050565b3373ffffffffffffffffffffffffffffffffffffffff166002600084815260200190815260200160002060009054906101000a900473ffffffffffffffffffffffffffffffffffffffff1673ffffffffffffffffffffffffffffffffffffffff161415156105b457600080fd5b6001828154811015156105c357fe5b906000526020600020906002020160010181908060018154018082558091505090600182039060005260206000200160009091929091909150908051906020019061060f9291906106f5565b50505050565b828054600181600116156101000203166002900490600052602060002090601f016020900481019282601f1061065657805160ff1916838001178555610684565b82800160010185558215610684579182015b82811115610683578251825591602001919060010190610668565b5b5090506106919190610775565b5090565b8280548282559060005260206000209081019282156106e4579160200282015b828111156106e35782518290805190602001906106d3929190610615565b50916020019190600101906106b5565b5b5090506106f1919061079a565b5090565b828054600181600116156101000203166002900490600052602060002090601f016020900481019282601f1061073657805160ff1916838001178555610764565b82800160010185558215610764579182015b82811115610763578251825591602001919060010190610748565b5b5090506107719190610775565b5090565b61079791905b8082111561079357600081600090555060010161077b565b5090565b90565b6107c391905b808211156107bf57600081816107b691906107c6565b506001016107a0565b5090565b90565b50805460018160011615610100020316600290046000825580601f106107ec575061080b565b601f01602090049060005260206000209081019061080a9190610775565b5b505600a165627a7a723058207bd5b2913f2d58c8efd9e4998f5fee1addcf109eea0c2a917aaf005e606de63b0029",
  "source": "pragma solidity ^0.4.19;\r\n\r\ncontract VoteFactory {\r\n    \r\n    address owner;\r\n    \r\n    struct Vote {\r\n        string question;\r\n        string[] answers;\r\n    }\r\n    \r\n    Vote[] public votes;\r\n    mapping (uint => address) voteToOwner;\r\n    \r\n    constructor() public {\r\n        owner = msg.sender;\r\n    }\r\n    \r\n    function createVote(string _question) public {\r\n        uint voteId = votes.push(Vote(_question, new string[](0))) - 1;\r\n        voteToOwner[voteId] = msg.sender;\r\n    }\r\n    \r\n    function addAnswer(uint _voteId, string _answer) public {\r\n        require(voteToOwner[_voteId] == msg.sender);\r\n        votes[_voteId].answers.push(_answer);\r\n    }\r\n\r\n    function voteAnswer(uint _voteId, uint _answerId) public view returns(string) {\r\n        return votes[_voteId].answers[_answerId];\r\n    }\r\n}\r\n",
  "sourcePath": "C:\\Users\\Ольга\\Desktop\\всёНеобходимое\\blockchain\\lab 2.0\\truff\\contracts\\VoteFactory.sol",
  "compiler": {
    "name": "solc",
    "version": "0.4.24+commit.e67f0147.Emscripten.clang"
  },
  "schemaVersion": "2.0.1",
  "updatedAt": "2018-07-11T07:11:56.776Z"
}